{
  "contractName": "CompoundUtil",
  "abi": [
    {
      "inputs": [],
      "payable": false,
      "stateMutability": "nonpayable",
      "type": "constructor"
    },
    {
      "anonymous": false,
      "inputs": [
        {
          "indexed": true,
          "internalType": "address",
          "name": "previousOwner",
          "type": "address"
        }
      ],
      "name": "OwnershipRenounced",
      "type": "event"
    },
    {
      "anonymous": false,
      "inputs": [
        {
          "indexed": true,
          "internalType": "address",
          "name": "previousOwner",
          "type": "address"
        },
        {
          "indexed": true,
          "internalType": "address",
          "name": "newOwner",
          "type": "address"
        }
      ],
      "name": "OwnershipTransferred",
      "type": "event"
    },
    {
      "anonymous": false,
      "inputs": [
        {
          "indexed": true,
          "internalType": "address",
          "name": "payer",
          "type": "address"
        },
        {
          "indexed": false,
          "internalType": "uint256",
          "name": "amount",
          "type": "uint256"
        },
        {
          "indexed": false,
          "internalType": "uint256",
          "name": "balance",
          "type": "uint256"
        }
      ],
      "name": "Received",
      "type": "event"
    },
    {
      "anonymous": false,
      "inputs": [
        {
          "indexed": true,
          "internalType": "address",
          "name": "payee",
          "type": "address"
        },
        {
          "indexed": false,
          "internalType": "uint256",
          "name": "amount",
          "type": "uint256"
        },
        {
          "indexed": false,
          "internalType": "uint256",
          "name": "balance",
          "type": "uint256"
        }
      ],
      "name": "Sent",
      "type": "event"
    },
    {
      "payable": true,
      "stateMutability": "payable",
      "type": "fallback"
    },
    {
      "constant": true,
      "inputs": [],
      "name": "owner",
      "outputs": [
        {
          "internalType": "address",
          "name": "",
          "type": "address"
        }
      ],
      "payable": false,
      "stateMutability": "view",
      "type": "function"
    },
    {
      "constant": false,
      "inputs": [],
      "name": "renounceOwnership",
      "outputs": [],
      "payable": false,
      "stateMutability": "nonpayable",
      "type": "function"
    },
    {
      "constant": false,
      "inputs": [
        {
          "internalType": "address",
          "name": "newOwner",
          "type": "address"
        }
      ],
      "name": "transferOwnership",
      "outputs": [],
      "payable": false,
      "stateMutability": "nonpayable",
      "type": "function"
    },
    {
      "constant": false,
      "inputs": [
        {
          "internalType": "address",
          "name": "payee",
          "type": "address"
        },
        {
          "internalType": "uint256",
          "name": "amount",
          "type": "uint256"
        }
      ],
      "name": "sendTo",
      "outputs": [],
      "payable": false,
      "stateMutability": "nonpayable",
      "type": "function"
    }
  ],
  "bytecode": "0x608060405234801561001057600080fd5b50336000806101000a81548173ffffffffffffffffffffffffffffffffffffffff021916908373ffffffffffffffffffffffffffffffffffffffff160217905550610835806100606000396000f3fe60806040526004361061003f5760003560e01c8063715018a6146100975780638da5cb5b146100ae5780639e1a00aa14610105578063f2fde38b14610160575b3373ffffffffffffffffffffffffffffffffffffffff167f74cf3d18d0ddca79038197ad0dd2c7fa5005ef61a5d1ed190e8a8a437e2fcf103447604051808381526020018281526020019250505060405180910390a2005b3480156100a357600080fd5b506100ac6101b1565b005b3480156100ba57600080fd5b506100c36102fd565b604051808273ffffffffffffffffffffffffffffffffffffffff1673ffffffffffffffffffffffffffffffffffffffff16815260200191505060405180910390f35b34801561011157600080fd5b5061015e6004803603604081101561012857600080fd5b81019080803573ffffffffffffffffffffffffffffffffffffffff16906020019092919080359060200190929190505050610322565b005b34801561016c57600080fd5b506101af6004803603602081101561018357600080fd5b81019080803573ffffffffffffffffffffffffffffffffffffffff16906020019092919050505061059c565b005b6000809054906101000a900473ffffffffffffffffffffffffffffffffffffffff1673ffffffffffffffffffffffffffffffffffffffff163373ffffffffffffffffffffffffffffffffffffffff1614610256576040517f08c379a000000000000000000000000000000000000000000000000000000000815260040180806020018281038252602f8152602001806107d2602f913960400191505060405180910390fd5b6000809054906101000a900473ffffffffffffffffffffffffffffffffffffffff1673ffffffffffffffffffffffffffffffffffffffff167ff8df31144d9c2f0f6b59d69b8b98abd5459d07f2742c4df920b25aae33c6482060405160405180910390a260008060006101000a81548173ffffffffffffffffffffffffffffffffffffffff021916908373ffffffffffffffffffffffffffffffffffffffff160217905550565b6000809054906101000a900473ffffffffffffffffffffffffffffffffffffffff1681565b6000809054906101000a900473ffffffffffffffffffffffffffffffffffffffff1673ffffffffffffffffffffffffffffffffffffffff163373ffffffffffffffffffffffffffffffffffffffff16146103c7576040517f08c379a000000000000000000000000000000000000000000000000000000000815260040180806020018281038252602f8152602001806107d2602f913960400191505060405180910390fd5b600073ffffffffffffffffffffffffffffffffffffffff168273ffffffffffffffffffffffffffffffffffffffff161415801561043057503073ffffffffffffffffffffffffffffffffffffffff168273ffffffffffffffffffffffffffffffffffffffff1614155b610485576040517f08c379a000000000000000000000000000000000000000000000000000000000815260040180806020018281038252602b815260200180610786602b913960400191505060405180910390fd5b600081116104fb576040517f08c379a00000000000000000000000000000000000000000000000000000000081526004018080602001828103825260208152602001807f616d6f756e74206d7573742062652067726561746572207468616e207a65726f81525060200191505060405180910390fd5b8173ffffffffffffffffffffffffffffffffffffffff166108fc829081150290604051600060405180830381858888f19350505050158015610541573d6000803e3d6000fd5b508173ffffffffffffffffffffffffffffffffffffffff167f6356739d963da01dc3533acba7203430fcc14f2175d48a8dd0973d7db49c785e8247604051808381526020018281526020019250505060405180910390a25050565b6000809054906101000a900473ffffffffffffffffffffffffffffffffffffffff1673ffffffffffffffffffffffffffffffffffffffff163373ffffffffffffffffffffffffffffffffffffffff1614610641576040517f08c379a000000000000000000000000000000000000000000000000000000000815260040180806020018281038252602f8152602001806107d2602f913960400191505060405180910390fd5b600073ffffffffffffffffffffffffffffffffffffffff168173ffffffffffffffffffffffffffffffffffffffff1614156106c7576040517f08c379a00000000000000000000000000000000000000000000000000000000081526004018080602001828103825260218152602001806107b16021913960400191505060405180910390fd5b8073ffffffffffffffffffffffffffffffffffffffff166000809054906101000a900473ffffffffffffffffffffffffffffffffffffffff1673ffffffffffffffffffffffffffffffffffffffff167f8be0079c531659141344cd1fd0a4f28419497f9722a3daafe3b4186f6b6457e060405160405180910390a3806000806101000a81548173ffffffffffffffffffffffffffffffffffffffff021916908373ffffffffffffffffffffffffffffffffffffffff1602179055505056fe72656365697665722063616e6e6f7420626520766f6964206f7220746865206f776e657220697473656c666e6577206f776e657220616464726573732063616e206e6f74206265206e756c6c4f6e6c79206f776e6572206f662074686520636f6e74726163742063616e2063616c6c2074686973206d6574686f64a265627a7a72315820c75a1de67c41afe7af1114b58a6881a78b7da6cbc57e117c7dfd1697fffc0abf64736f6c63430005100032",
  "source": "pragma solidity ^0.5.0;\n\ncontract Ownable {\n    address public owner;\n\n    event OwnershipTransferred(\n        address indexed previousOwner,\n        address indexed newOwner\n    );\n    event OwnershipRenounced(address indexed previousOwner);\n\n    // sets the original `owner` of the contract to the sender\n    constructor() public {\n        owner = msg.sender;\n    }\n\n    // throws if called by any account other than the owner\n    modifier onlyOwner() {\n        require(\n            msg.sender == owner,\n            \"Only owner of the contract can call this method\"\n        );\n        _;\n    }\n\n    // allows the current owner to transfer control of the contract to a newOwner\n    function transferOwnership(address newOwner) public onlyOwner {\n        require(newOwner != address(0), \"new owner address can not be null\"); // black-hole check\n        emit OwnershipTransferred(owner, newOwner);\n        owner = newOwner; // change owner\n    }\n\n    // allows the current owner to renounce control of the contract.\n    function renounceOwnership() public onlyOwner {\n        emit OwnershipRenounced(owner);\n        owner = address(0); // set owner as void\n    }\n}\n\ncontract CompoundUtil is Ownable {\n    constructor() public {}\n\n    event Sent(address indexed payee, uint256 amount, uint256 balance);\n    event Received(address indexed payer, uint256 amount, uint256 balance);\n\n    // wallet can receive funds\n    function() external payable {\n        emit Received(msg.sender, msg.value, address(this).balance);\n    }\n\n    // wallet can send funds\n    function sendTo(address payee, uint256 amount) public onlyOwner {\n        require(\n            payee != address(0) && payee != address(this),\n            \"receiver cannot be void or the owner itself\"\n        );\n        require(amount > 0, \"amount must be greater than zero\");\n        address(uint160(payee)).transfer(amount);\n        emit Sent(payee, amount, address(this).balance);\n    }\n}\n\n// contract Ownable {\n//     address public owner;\n\n//     event OwnershipTransferred(\n//         address indexed previousOwner,\n//         address indexed newOwner\n//     );\n//     event OwnershipRenounced(address indexed previousOwner);\n\n//     // sets the original `owner` of the contract to the sender\n//     constructor() public {\n//         owner = msg.sender;\n//     }\n\n//     // throws if called by any account other than the owner\n//     modifier onlyOwner() {\n//         require(msg.sender == owner, \"Only owner of the contract can call this method\");\n//         _;\n//     }\n\n//     // allows the current owner to transfer control of the contract to a newOwner\n//     function transferOwnership(address newOwner) public onlyOwner {\n//         require(newOwner != address(0), \"new owner address can not be null\");                               // black-hole check\n//         emit OwnershipTransferred(owner, newOwner);\n//         owner = newOwner;                                                                                   // change owner\n//     }\n\n//     // allows the current owner to renounce control of the contract.\n//     function renounceOwnership() public onlyOwner {\n//         emit OwnershipRenounced(owner);\n//         owner = address(0);                                                                                 // set owner as void\n//     }\n// }\n\n// contract Heritable is Ownable {\n//     address private heir_;\n\n//     // time window in which the owner must notify they are not dead\n//     uint private heartbeatTimeout_;\n\n//     // time of the owner's death as given by the heir.\n//     uint private timeOfDeath_;\n\n//     event HeirChanged(address indexed owner, address indexed newHeir);\n//     event OwnerHeartbeated(address indexed owner);\n//     event OwnerProclaimedDead(\n//         address indexed owner,\n//         address indexed heir,\n//         uint timeOfDeath\n//     );\n//     event HeirOwnershipClaimed(\n//         address indexed previousOwner,\n//         address indexed newOwner\n//     );\n\n//     // throws if called by any account other than the heir\n//     modifier onlyHeir() {\n//     require(msg.sender == heir_, \"Only heir of the contract can call this method\");\n//     _;\n//     }\n\n//     // constructor creates the contract with the given heartbeat timeout and sets the default heir as void\n//     constructor(uint _heartbeatTimeout) public {\n//         setHeartbeatTimeout(_heartbeatTimeout);\n//         heir_ = address(0);\n//     }\n\n//     // set the heir of the contract\n//     function setHeir(address newHeir) public onlyOwner {\n//         require(newHeir != owner, \"owner cannot be heir of itself\");\n//         heartbeat();\n//         emit HeirChanged(owner, newHeir);\n//         heir_ = newHeir;\n//     }\n\n//     // returns the heir of the contract\n//     function heir() public view returns(address) {\n//         return heir_;\n//     }\n\n//     // returns the current heartbeat timeout\n//     function heartbeatTimeout() public view returns(uint) {\n//         return heartbeatTimeout_;\n//     }\n\n//     // returns the time of death of the owner\n//     function timeOfDeath() public view returns(uint) {\n//         return timeOfDeath_;\n//     }\n\n//     // sets the heir to point to void\n//     function removeHeir() public onlyOwner {\n//         heartbeat();\n//         heir_ = address(0);\n//     }\n\n//     // the heir can proclaim the owner's death. To claim the ownership, they will have to wait for `heartbeatTimeout` seconds.\n//     function proclaimDeath() public onlyHeir {\n//         require(ownerLives(), \"The owner must be living before death is proclaimed\");\n//         emit OwnerProclaimedDead(owner, heir_, timeOfDeath_);\n//         timeOfDeath_ = now;\n//     }\n\n//     // send a heartbeat to verify that the owner is still alive\n//     function heartbeat() public onlyOwner {\n//         emit OwnerHeartbeated(owner);\n//         timeOfDeath_ = 0;\n//     }\n\n//     // Allows the heir to transfer ownership (only if heartbeat has timed out)\n//     function claimHeirOwnership() public onlyHeir {\n//         require(!ownerLives(), \"owner must be proclaimed dead before claiming the ownership\");\n\n//         require(now >= timeOfDeath_ + heartbeatTimeout_, \"atleast heartbeatTimeout_ amount of time must have passed between proclaimed death time and ownership claim\");\n//         emit OwnershipTransferred(owner, heir_);\n//         emit HeirOwnershipClaimed(owner, heir_);\n//         owner = heir_;\n//         timeOfDeath_ = 0;\n//         heir_ = address(0);\n//     }\n\n//     // change the heartbeatTimeout\n//     function setHeartbeatTimeout(uint newHeartbeatTimeout) public onlyOwner {\n//         require(ownerLives(), \"Owner must be alive to set new heartneat timeout\");\n//         heartbeatTimeout_ = newHeartbeatTimeout;\n//     }\n\n//     // returns owner's living status\n//     function ownerLives() internal view returns (bool) {\n//         return timeOfDeath_ == 0;\n//     }\n// }\n\n// contract DeadMansSwitch is Heritable {\n//     event Sent(address indexed payee, uint amount, uint balance);\n//     event Received(address indexed payer, uint amount, uint balance);\n\n//     constructor(uint _heartbeatTimeout) Heritable(_heartbeatTimeout) public {}\n\n//     // wallet can receive funds\n//     function () external payable {\n//         emit Received(msg.sender, msg.value, address(this).balance);\n//     }\n\n//     // wallet can send funds\n//     function sendTo(address payee, uint amount) public onlyOwner {\n//         require(payee != address(0) && payee != address(this), \"receiver cannot be void or the owner itself\");\n//         require(amount > 0, \"amount must be greater than zero\");\n//         address(uint160(payee)).transfer(amount);\n//         emit Sent(payee, amount, address(this).balance);\n//     }\n// }\n",
  "sourcePath": "/home/anuj/Desktop/eth_india_fellowship/week3/contract/contracts/CompoundUtil.sol",
  "compiler": {
    "name": "solc",
    "version": "0.5.16+commit.9c3226ce.Emscripten.clang"
  },
  "schemaVersion": "3.2.0",
  "updatedAt": "2020-06-28T08:07:37.314Z",
  "networkType": "ethereum",
  "devdoc": {
    "methods": {}
  },
  "userdoc": {
    "methods": {}
  }
}